S01700004763634170706C69636174696F6E312E737265635B
S11300000C9434000C943E000C943E000C943E007E
S11300100C943E000C943E000C943E000C943E0064
S11300200C943E000C943E000C943E000C943E0054
S11300300C943E000C943E000C943E000C943E0044
S11300400C943E000C943E000C943E000C943E0034
S11300500C943E000C943E000C943E000C943E0024
S11300600C943E000C943E0011241FBECFEFD8E048
S1130070DEBFCDBF0E9444000C945C000C940000D1
S11300808FEF84B915B80895C4E00E944000C5B943
S11300902FE58AEE90E0215080409040E1F700C0C7
S11300A0000015B82FE58AEE90E021508040904082
S10F00B0E1F700C00000E9CFF894FFCF96
S9030000FC
