:1000000012C019C018C017C016C015C014C013C044
:1000100012C011C010C00FC00EC00DC00CC00BC06C
:100020000AC009C008C011241FBECFE5D4E0DEBF5E
:10003000CDBF02D036C0E4CF8FEF81BB88E087BB55
:1000400018BA89E685BD48EC3FE72FE382B393B544
:10005000892782BBB09B0BC05FE78AE196E05150D5
:1000600080409040E1F700C0000023BDEFCFB19B7E
:100070000BC05FE78AE196E0515080409040E1F785
:1000800000C0000033BDE2CFB29BE0CF5FE78AE162
:1000900096E0515080409040E1F700C0000043BD21
:0600A000D5CFF894FFCF5C
:00000001FF
