S01700004763634170706C69636174696F6E352E7372656357
S113000012C021C020C02CC01EC01DC01CC01BC0FB
S11300101AC019C018C017C016C015C014C013C028
S113002012C011C010C011241FBECFE5D4E0DEBF42
S1130030CDBF20E0A0E6B0E001C01D92A236B20719
S1130040E1F702D02FC0DCCF81E087BB88E085BD1B
S11300508CE983BD80E889BF789484E085BDFFCFB7
S11300601F920F920FB60F9211248F939F9380913A
S1130070600090916100019690936100809360000C
S11300808234910544F098B381E0892788BB1092AB
S11300906100109260009F918F910F900FBE0F909E
S10B00A01F901895F894FFCF9E
S9030000FC
